:020000040800F2
:1000000098440020010100080501000807010008CC
:10001000090100080B0100080D01000800000000A4
:1000200000000000000000000000000011010008B6
:100030000F0100080000000083C000085D020008F6
:1000400000000000000000000000000000000000B0
:1000500000000000000000007F020008810200088C
:100060000000000000000000000000000000000090
:100070000000000000000000000000000000000080
:100080000000000000000000000000000000000070
:1000900000000000000000000000000083020008D3
:1000A0000000000000000000000000000000000050
:1000B000DB0200080000000000000000000000005B
:1000C0000000000000000000000000000000000030
:1000D000000000001F0D00080000000000000000EC
:1000E000890D000800000000000000000000000072
:1000F0000000000000000000000000000000000000
:1001000004480047FEE7FEE7FEE7FEE7FEE7FEE7FE
:10011000FEE700001901000800F002F800F03AF8CC
:100120000AA090E8000C82448344AAF10107DA4552
:1001300001D100F02FF8AFF2090EBAE80F0013F06A
:10014000010F18BFFB1A43F001031847C004010058
:10015000E0040100103A24BF78C878C1FAD85207E9
:1001600024BF30C830C144BF04680C607047000031
:100170000023002400250026103A28BF78C1FBD8B0
:10018000520728BF30C148BF0B6070471FB51FBD65
:1001900010B510BD0FF05DF81146FFF7F7FF00F046
:1001A000FDFE0FF07BF803B4FFF7F2FF03BC0FF086
:1001B00083F8000030BF704720BF704740BF7047D2
:1001C000BFF36F8F7047BFF34F8F7047BFF35F8FE1
:1001D000704701DF7047EFF31480704780F3148895
:1001E000BFF36F8F7047EFF30980704780F3098882
:1001F0007047EFF30880704780F30888704762B655
:10020000704772B67047EFF31080704771B6704751
:1002100061B67047EFF31380704780F31188704721
:10022000EFF31280704740BA704700BA7047000081
:1002300002480349014A034B70470000983C0020E4
:1002400098440020983C002000BFFEE700BFFEE776
:1002500000BFFEE700BFFEE77047704710B50BF028
:10026000EFFE0446FE480078401CFD490870204619
:100270000BF0EAFE0CF054FA0CF02AF910BD7047AE
:10028000704710B5802009F085FE28B38021F5481D
:1002900009F096FF01281CD1F3480078C8B9F2484C
:1002A0000078C0EB0010F14901EB8000C078012814
:1002B0000FD1ED480078C0EB001011F8200040B9D4
:1002C0000020E9490978C1EB0111E84A02EB8101FC
:1002D0004870802009F06FFE10BD3EB501218807EF
:1002E0000BF0F1F9E248007801287DD1DE48007872
:1002F000C0EB0010DD4901EB80004078022874D18A
:10030000D9480078C0EB001001EB80004069D64965
:100310000978C1EB0111D54A02EB8101C969884214
:100320007EDAD1480078C0EB0010114601EB800066
:100330000069CD490978C1EB011102EB81018860A8
:10034000C9480078C0EB0010114601EB80004069FD
:10035000C5490978C1EB011102EB8101C861032095
:10036000C1490978C1EB011102EB81014870BE4817
:100370000078C0EB0010114601EB8000C06ABA495A
:100380000978C1EB011102EB81014969022202FBEC
:100390000100B5490978C1EB0111B44A02EB8101B2
:1003A000096A081AB0490978C1EB011102EB810111
:1003B0008861AD480078C0EB0010114601EB800069
:1003C000C06AA9490978C1EB011102EB81014969B1
:1003D000022202FB0100A4490978C1EB0111A34AE2
:1003E00002EB8101086201E0DEE07DE09E4C2478B2
:1003F000C4EB0414154605EB840404F134039A4C51
:100400002478C4EB041405EB840404F13002964C08
:100410002478C4EB041405EB8404E168924C00E0FA
:1004200008E02478C4EB041405EB8404A06800F011
:100430004FFF46E08C480078C0EB00108B4901EB81
:100440008000406988490978C1EB0111874A02EBB5
:100450008101C969084484490978C1EB011102EBA3
:100460008101C96A084480490978C1EB011102EB96
:100470008101096A081A7C490978C1EB011102EB74
:100480008101886178480078C0EB0010114601EBCB
:100490008000406974490978C1EB011102EB8101C8
:1004A000C969084470490978C1EB011102EB810167
:1004B000C96A08446C490978C1EB011102EB81015A
:1004C000086269480078C0EB0010684901EB8000C1
:1004D000C078012865D164490978C1EB0111634AEC
:1004E00002EB810148715CE05F480078C0EB0010CE
:1004F0005E4901EB8000407803281AD100205A4958
:100500000978C1EB0111594A02EB81018861564813
:100510000078C0EB0010114601EB8000C078012884
:100520003FD151490978C1EB011102EB81014871BA
:1005300037E04D480078C0EB00104C4901EB8000DB
:10054000407801281BD1002047490978C1EB0111EF
:10055000464A02EB8101886143480078C0EB0010F5
:10056000114601EB8000C07801281AD100203E49D5
:100570000978C1EB011102EB8101487011E03A48A2
:100580000078C0EB0010394901EB8000407840B999
:10059000002035490978C1EB0111344A02EB810191
:1005A00088610020324908702F480078C0EB0010A5
:1005B0002E4901EB8000407800287DD001287CD0B6
:1005C000022802D0032879D109E127480078C0EB3E
:1005D0000010264901EB8000006A23490978C1EB2D
:1005E0000111224A02EB8101C969401A1E490978AA
:1005F000C1EB011102EB8101C96A401A1A4909785D
:10060000C1EB011102EB8101496988427EDD164888
:100610000078C0EB0010114601EB8000807820B913
:100620001148007801F0F0F915E00F480078C0EBB0
:1006300000100E4901EB8000807801280BD10420C6
:1006400001F0E2F9052001F0DFF9062001F0DCF904
:10065000072001F0D9F904480078C0EB001009E048
:100660007D000020001801401A000020FC1B002023
:1006700019000020FE4901EB80004069401CFD4943
:100680000978C1EB0111FA4A02EB81014861F9488E
:100690000078C0EB0010114601EB80004069F5497D
:1006A0000978C1EB011102EB8101896A90FBF1F23B
:1006B00001FB1200002802E02EE3BDE12BE341D153
:1006C000EC480078C0EB0010E94901EB8000406B7A
:1006D000E84C00902478C4EB04140D4605EB840428
:1006E000E368E44C2478C4EB041405EB8404A268AA
:1006F000E04C2478C4EB041405EB8404616ADD4CFF
:100700002478C4EB041405EB840400E01BE060696A
:1007100000F02BFED7490978C1EB01112A4602EB04
:1007200081010861D44AD34B1B7852F82310D14A77
:100730001278C2EB02122B4603EB820210690122EF
:1007400000F0D4FE4AE0CB480078C0EB0010C84966
:1007500001EB8000C069C7490978C1EB0111C44AA7
:1007600002EB8101496A88422FDAC2480078C0EB67
:100770000010114601EB80000069BE490978C1EB09
:10078000011102EB81018860BA4C2478C4EB041497
:10079000154605EB840404F13403B64C2478C4EB0D
:1007A000041405EB840404F13002B24C2478C4EB49
:1007B000041405EB8404E168AE4C2478C4EB041403
:1007C00005EB8404A06800F083FD0320A9490978A3
:1007D000C1EB0111A64A02EB810148709DE2A548D8
:1007E0000078C0EB0010A24901EB8000006AA1492B
:1007F0000978C1EB01119E4A02EB8101C96A401AD6
:100800009C490978C1EB011102EB810149698842D9
:100810007EDD98480078C0EB0010114601EB8000A7
:10082000807820B99348007801F0EEF815E09148FF
:100830000078C0EB00108E4901EB80008078012821
:100840000BD1042001F0E0F8052001F0DDF80620CE
:1008500001F0DAF8072001F0D7F886480078C0EBFD
:100860000010834901EB80004069401C81490978F0
:10087000C1EB01117E4A02EB810148617D4800789D
:10088000C0EB0010114601EB8000406979490978FE
:10089000C1EB011102EB8101896A90FBF1F201FBCE
:1008A000120000287DD173480078C0EB0010704919
:1008B00001EB8000C0696F490978C1EB01116C4AF6
:1008C00002EB8101496A884243DA6A480078C0EB4A
:1008D0000010114601EB8000406B66490978C1EBBE
:1008E000011102EB8101C968624A1278C2EB02125F
:1008F0005F4B03EB820292685E4CCDE900210290CF
:100900002478C4EB04141D4605EB8404E36A00E07C
:1009100074E0584C2478C4EB041405EB8404E269B9
:10092000544C2478C4EB041405EB8404216A514C24
:100930002478C4EB041405EB8404606900F06CFDBA
:100940004C490978C1EB01112A4602EB810108618B
:1009500043E048480078C0EB0010454901EB8000B7
:10096000406B44490978C1EB0111414A02EB810116
:10097000C968404A1278C2EB02123D4B03EB820277
:1009800092683C4CCDE9002102902478C4EB041419
:100990001D4605EB8404E36A364C2478C4EB04144A
:1009A00000E048E005EB8404626A324C2478C4EB32
:1009B000041405EB8404216A2E4C2478C4EB04143F
:1009C00005EB8404606900F027FD2A490978C1EB32
:1009D00001112A4602EB81010861274A254B1B7849
:1009E00052F82310234A1278C2EB0212204B03EB79
:1009F00082021069012200F079FD1CE01D48007898
:100A0000C0EB00101A4901EB80004079012809D1A0
:100A1000002018490978C1EB0111154A02EB810148
:100A2000487008E0012013490978C1EB0111104A10
:100A300002EB8101487070E10E480078C0EB0010B5
:100A40000B4901EB8000C078B0BB0A480078C0EBCE
:100A5000001001EB8000406906490978C1EB0111E3
:100A6000034A02EB8101096A88424EDA014805E037
:100A7000FC1B00201A000020B00101080078C0EB28
:100A80000010114601EB80008078B0B9FE48007874
:100A900000F0BAFFFC480078C0EB0010FB4901EB06
:100AA00080004069401CF8490978C1EB0111F74A00
:100AB00002EB810148612EE131E0F3480078C0EBA0
:100AC0000010F24901EB800080780128F3D1042066
:100AD00000F09AFF052000F097FF062000F094FF39
:100AE000072000F091FFE8480078C0EB0010E749CC
:100AF00001EB80004069401CE3490978C1EB01111A
:100B0000E24A02EB8101486105E10020DE490978F3
:100B1000C1EB0111DD4A02EB81014870FBE0DA48CC
:100B20000078C0EB0010D94901EB8000C0780128A3
:100B3000C1D1D7480078022809D10020D2490978CC
:100B4000C1EB0111D14A02EB81014870E3E0CE48CC
:100B50000078C0EB0010CD4901EB80008078A8B987
:100B6000C948007800F050FFC7480078C0EB00107B
:100B7000C64901EB8000806B401CC3490978C1EB7A
:100B80000111C24A02EB8101886326E0BE48007869
:100B9000C0EB0010BD4901EB8000807801281CD11A
:100BA000042000F031FF052000F02EFF062000F0A9
:100BB0002BFF072000F028FFB3480078C0EB00109F
:100BC000B24901EB8000806B401CAF490978C1EB52
:100BD0000111AE4A02EB81018863AB480078082816
:100BE00021D2DFE800F004213E5B78797A7BA648C9
:100BF0000078C0EB0010A54901EB8000806B4FF638
:100C0000205188420FD90120A24908709E480078DF
:100C1000A149087000209C490978C1EB01119B4A49
:100C200002EB8101487075E097480078C0EB001036
:100C3000964901EB8000806B46F2702188420FD903
:100C4000012094490870904800789349087000206A
:100C50008D490978C1EB01118C4A02EB8101487082
:100C600058E089480078C0EB0010884901EB80000B
:100C7000806B43F6C43188420FD901208549087042
:100C8000814800788449087000207F490978C1EBC9
:100C900001117E4A02EB810148703BE07A480078FE
:100CA000C0EB0010794901EB8000806B41F6A47124
:100CB00088420FD901207749087073480078764937
:100CC0000870002070490978C1EB01116F4A02EBEE
:100CD000810148701EE000BF00BF00BF6A48007875
:100CE000C0EB0010694901EB8000806B6B498842C2
:100CF0000FD9012067490870634800786649087079
:100D0000002061490978C1EB0111604A02EB8101C1
:100D1000487000BF00BF00E000BF00BF3EBD10B57F
:100D200040F225515E480BF0EBF860B309F07DF816
:100D300004465C48007808BB022C05D101205A49C2
:100D4000087000205949087057480078012808D1D8
:100D5000574856490978445454480078401C534930
:100D60000870042C0AD100204F4908704F480078C1
:100D7000401E4E49087001204A49087040F2255132
:100D800047480BF0E3F810BD10B54FF4006009F0D0
:100D900001F948B34FF40061464809F011FA0128FF
:100DA0001ED13948007803281AD137480078C0EBA3
:100DB0000010364901EB8000C078012810D132487C
:100DC0000078C0EB001011F82000012808D10020A5
:100DD0002D490978C1EB01112C4A02EB81014870C1
:100DE0004FF4006009F0E7F84FF4004009F0D2F842
:100DF00040B34FF400412F4809F0E2F9F0B922481E
:100E0000007807281AD120480078C0EB00101F494D
:100E100001EB8000C078012810D11B480078C0EB9E
:100E2000001011F82000012808D100201649097887
:100E3000C1EB0111154A02EB810148704FF40040EB
:100E400009F0B9F84FF4804009F0A4F8A0B34FF4CA
:100E50008041184809F0B4F978BB0B48007806289F
:100E600035D109480078C0EB0010084901EB80003B
:100E7000C07801282BD104480078C0EB001011F88D
:100E80002000012823D119E01A000020FC1B0020BB
:100E9000180000202A0000202B000020E022020081
:100EA000003801401D0000201E0000201C00002012
:100EB000DC1D0020000C01400DE008E0002034495A
:100EC0000978C1EB0111334A02EB810148704FF4FC
:100ED000804009F070F84FF4005009F05BF840B31F
:100EE0004FF400512C4809F06BF9F0B9284800780C
:100EF00005281AD126480078C0EB0010254901EBDF
:100F00008000C078012810D121480078C0EB001083
:100F100011F82000012808D100201D490978C1EBF3
:100F200001111C4A02EB810148704FF4005009F096
:100F300042F84FF4805009F02DF840B34FF480513F
:100F4000154809F03DF9F0B91148007804281AD184
:100F50000F480078C0EB00100E4901EB8000C0780C
:100F6000012810D10A480078C0EB001011F82000C9
:100F7000012808D1002006490978C1EB0111054A72
:100F800002EB810148704FF4805009F014F810BD55
:100F90001A000020FC1B0020000C014000B587B0A7
:100FA00008F0D6FE0BF05FFA032000214FF4007228
:100FB0000A4BCDE90132CDE9031006200346084A69
:100FC000009008480DF080F906AA07A106200DF050
:100FD00019FB0BF06EFB002007B000BDC400002021
:100FE000C0080020F50F00085374617274546173D7
:100FF0006B00000088B0002500260027A8460BF0F3
:1010000070FB032000214FF400729D4BCDE90310CB
:10101000CDE90132009003469A4A9B480DF054F9FD
:10102000032000214FF40072984BCDE90132CDE945
:10103000031002200346964A009096480DF044F9AA
:10104000032000218022944BCDE90132CDE9031029
:1010500007200346914A009091480DF035F9002091
:101060000CF043FE8F49086000200CF03EFE8E49D4
:10107000086000200CF039FE8C490860FEE007AAE9
:101080000121884800680CF0CDFE9DF81C00F8B9DD
:101090000DF00CFD05F1500188420BD30DF006FD5B
:1010A00006F15001884205D30DF000FD07F1500113
:1010B000884202D250200DF025FC062008F0A7FE41
:1010C0000A2008F0A4FE902007900DF0EFFC804667
:1010D00006AA0121744800680CF0A4FE9DF81800CF
:1010E00070BB0DF0E3FC05F15001884211D30DF007
:1010F000DDFC06F1500188420BD30DF0D7FC07F15F
:101100005001884205D30DF0D1FC08F1500188420E
:1011100002D250200DF0F6FB002405E06449085D82
:1011200008F075FE601C84B2624800788442F5DDE8
:101130000A2008F06CFE902006900DF0B7FC0646E1
:1011400005AA0121594800680CF06CFE9DF81400B6
:1011500030BB0DF0ABFC05F1500188420BD30DF014
:10116000A5FC06F15001884205D30DF09FFC08F163
:101170005001884202D250200DF0C4FB002405E04B
:101180004D49085D08F043FE601C84B21B2CF7DB60
:101190000A2008F03CFE902005900DF087FC0746E1
:1011A0000DF084FCA84205D30DF080FC401BB0F587
:1011B000FA6F60D90DF07AFC06F1500188420BD32A
:1011C0000DF074FC08F15001884205D30DF06EFC5F
:1011D00007F15001884202D250200DF093FB042405
:1011E00035E0E0B208F0B1FA60B3344850F82400BA
:1011F000334951F82410884203DC00203149085556
:1012000023E0314850F824002D4951F82410884239
:1012100014D02A4850F82400294951F82410401AC3
:1012200064214843284951F82410254A52F82420C3
:10123000891A90FBF1F02349085506E00020214966
:10124000085502E0FF201F490855601C84B2052C98
:10125000C7DB02F0DAFD002405E01C49085D08F058
:10126000D6FD601C84B2142CF7DD0A2008F0CFFDF7
:101270000DF01CFC054601200DF044FBFFE60000CC
:10128000FC090020F811002089250008FC1100202D
:10129000F8190020212B0008FC190020F81B002061
:1012A000A198000800000020080000200400002091
:1012B000C408002012000020C409002014280020C7
:1012C000282800200D0000203C280020E0090020F4
:1012D000F0B504464FF47A754D4395FBF4F515606F
:1012E000FE4E15683668B54206DDFC4D2D6815606A
:1012F0004FF4FA751D60F0BD012031E0F74E56F84D
:1013000020601568B5422ADD012811D1F34E156819
:101310007668AD1B4FF4FA767543F04E3668EF4FA2
:101320007F68F61B95FBF6F5C5F57A751D6015E02F
:10133000EA4E56F820601568AD1B4FF47A76754377
:10134000461EE64F57F8266057F82070F61B95FBAF
:10135000F6F64FF47A754543AD1B1D6002E0401C64
:101360000A28CBDB00BF00BFC5E72DE9F0410546E9
:101370000F469C46069E42F22830801B684390FB35
:10138000F7F08319012143E04FF47A704843984203
:101390003DDD012916D1D1480068DFF84083D8F837
:1013A0000480A0EB0800C3F57A7800FB08F04FF446
:1013B000FA7890FBF8F0DFF82483D8F8048000EB8B
:1013C00008041AE0481EDFF8148358F8200058F883
:1013D0002180A0EB08004FF47A7801FB08F8A8EB15
:1013E000030800FB08F04FF47A7890FBF8F0DFF880
:1013F000EC8258F8218000EB080404FB02F0DFF8CF
:10140000DC82D8F8248090FBF8F0BDE8F081491C1C
:101410000A29B9DB1046F8E72DE9F04F06460C46DD
:101420009C46DDE90A89099F301B104400EB0C0A39
:10143000002C02DA3846BDE8F08F924501DD4046C7
:10144000F9E742F22830A0EB090000FB0AF090FB1C
:10145000F2F042F2283BABEB0003012142E04FF4F3
:101460007A70484398423CDB012916D19B480068BA
:10147000DFF868B2DBF804B0A0EB0B00C3F57A7BB1
:1014800000FB0BF04FF4FA7B90FBFBF0DFF84CB263
:10149000DBF804B000EB0B051AE0481EDFF83CB2A5
:1014A0005BF820005BF821B0A0EB0B004FF47A7BD7
:1014B00001FB0BFBABEB030B00FB0BF04FF47A7B58
:1014C00090FBFBF0DFF814B25BF821B000EB0B05EA
:1014D00005FB07F0DFF804B2DBF824B090FBFBF06B
:1014E000A9E7491C0A29BADB4046A4E770B50646BD
:1014F0000C4615467A498E8005B10C8078494FF02C
:10150000804009F078FB70BD70B505460C46082D8B
:1015100061D2DFE805F004111C27343F4A552CB195
:101520004FF400616F4808F067FE04E04FF400617B
:101530006C4808F05FFE4EE024B120216A4808F0B4
:1015400059FE03E02021684808F056FE43E024B12C
:101550000221654808F050FE03E00221624808F0CD
:1015600049FE38E02CB14FF400415E4808F042FEDD
:1015700004E04FF400415B4808F03EFE2BE024B14C
:1015800080215A4808F036FE03E08021574808F0D1
:1015900033FE20E024B12021544808F02BFE03E064
:1015A0002021524808F028FE15E024B108214F48B8
:1015B00008F020FE03E008214C4808F01DFE0AE078
:1015C00024B10221494808F015FE03E002214748F2
:1015D00008F012FE00BF00BF70BD2DE9F05F0446A9
:1015E0008A4690469946DDE90AB60D9F08F02AFC26
:1015F0003F480470B9F1010F6ED1002F02DB3D4866
:10160000874212DD02203C4908703C4804700027E4
:10161000042508E00020C5EB0511394A02EB8101E1
:10162000C870681CC5B2082DF4DB042552E03548AB
:1016300000EB461050F82400C5EB0511304A02EBD0
:1016400081018860304800EB461050F82400C5EB5B
:10165000051102EB8101C860C4EB0410114601EBD7
:101660008000C068C5EB051102EB8101086151469D
:101670002846FFF749FFC5EB0510214901EB800023
:1016800080F80180C5EB051001F820A0C5EB05101E
:1016900001EB800080F80290C5EB051001EB8000A3
:1016A00080F803B0C5EB051001EB80000671002047
:1016B000C5EB0511124A02EB81014871C5EB05111A
:1016C00002EB81018861C5EB051102EB81018863A2
:1016D000681CC5B2082D19E01AE000008801010855
:1016E000602800200018014000080140001401405B
:1016F0001A000020E02202002A0000202B00002017
:10170000FC1B002030020108B00201088FDBB5E0AD
:10171000082C61D2DFE804F00416283A4C4D4E4FF5
:101720004FF6205087420CDD0220F3490870F34841
:10173000047000270020C4EB0411F14A02EB810180
:10174000C87049E046F2702087420CDD0220EA4969
:101750000870EA48047000270020C4EB0411E84A2E
:1017600002EB8101C87037E043F6C43087420CDDDC
:101770000220E1490870E148047000270020C4EB12
:101780000411DF4A02EB8101C87025E041F6A47024
:1017900087420CDD0220D8490870D8480470002721
:1017A0000020C4EB0411D64A02EB8101C87013E09B
:1017B00000BF00BF00BFD34887420CDD0220CE49E6
:1017C0000870CE48047000270020C4EB0411CC4AF6
:1017D00002EB8101C87000BF00BFCB4800EB461090
:1017E00050F82400C4EB0411C54A02EB8101886063
:1017F000C64800EB461050F82400C4EB041102EB7D
:101800008101C860C4EB0410114601EB8000C06880
:10181000C4EB041102EB8101086151462046FFF739
:1018200073FEC4EB0410B64901EB800080F8018020
:10183000C4EB041001F820A0C4EB041001EB8000FD
:1018400080F80290C4EB041001EB800080F803B034
:10185000C4EB041001EB800006710020C4EB0411FE
:10186000A74A02EB81014871C4EB041102EB81012C
:101870008861C4EB041102EB81018863B8F1030FA6
:101880000BD1C4EB04109E4901EB80008068C4EBCF
:1018900004119B4A02EB81010861C4EB0411984AD0
:1018A00002EB81010C984861C4EB0410114601EB76
:1018B00080000762964800EB461050F82400C4EB05
:1018C000041102EB81014862924800EB461050F887
:1018D0002400C4EB041102EB8101C862C4EB041CB8
:1018E00096460EEB8C0C0CF13403C4EB041C0EEB8F
:1018F0008C0C0CF13002C4EB041C0EEB8C0CDCF8ED
:101900000C10C4EB041C0EEB8C0CDCF80800FFF789
:10191000DFFCB8F1020F65D1C4EB0410784901EB8C
:101920008000006AC4EB0411754A02EB8101C96AA8
:1019300088420CDC0020C4EB041102EB8101C86179
:101940000120C4EB041102EB810148704AE0C4EBB2
:1019500004116B4A02EB8101096AC4EB0412684B63
:1019600003EB8202D26A881A00EBD0714910C4EBF3
:10197000041203EB8202D161C4EB0410194601EB9F
:101980008000C069C4EB04111A4602EB8101496A68
:1019900088420ADDC4EB0410114601EB8000406A66
:1019A000C4EB041102EB8101C861C4EB041054497B
:1019B00001EB8000406A642190FBF1F0C4EB04115C
:1019C0004F4A02EB81018862C4EB0410114601EB1F
:1019D0008000806A012805DA0120C4EB041102EBC3
:1019E000810188624C4A02EB461252F82410C4EB83
:1019F0000412434B03EB820210690122FFF776FDCC
:101A000008F02FFABDE8F09F70B50446082C71D29B
:101A1000DFE804F00413202D3C4956634FF4806145
:101A20003E4808F0DAFBC0F10100C5B22A464FF487
:101A300080613A4808F0E2FB5CE01021384808F089
:101A4000CCFBC0F10100C5B22A461021344808F091
:101A5000D5FB4FE00121324808F0BFFBC0F1010087
:101A6000C5B22A4601212E4808F0C8FB42E04FF4D7
:101A700080412A4808F0B1FBC0F10100C5B22A46F6
:101A80004FF48041254808F0B9FB33E04021254858
:101A900008F0A3FBC0F10100C5B22A46402121484D
:101AA00008F0ACFB26E010211E4808F096FBC0F1C0
:101AB0000100C5B22A4610211A4808F09FFB19E020
:101AC0000421184808F089FBC0F10100C5B22A467C
:101AD0000421144808F092FB0CE00121114808F0A1
:101AE0007CFBC0F10100C5B22A4601210D4808F077
:101AF00085FB00BF00BF70BD2A0000202B00002026
:101B0000FC1B0020E022020030020108B0020108A4
:101B100030030108B0030108B001010800180140BA
:101B200000080140001401403EB5044634B1012CC8
:101B300054D0022C72D0032C4FD1EAE08021FE4811
:101B400008F03EFBD8B900200121009103460A4667
:101B5000CDE90110014600F0A9FA022800D13EBDEE
:101B60007820012100221346CDE9002102900A4687
:101B70000021084600F09AFA02282ED1EFE74FF430
:101B8000FA60002100910B460222CDE901100121EB
:101B9000002000F08BFA022800D1E0E764200CF06E
:101BA000B1FE00200121009103460A46CDE9011053
:101BB000014600F07BFA022800D1D0E7782001210D
:101BC00000221346CDE9002102900A460021084672
:101BD00000F06CFA022800D1C1E7E8E08021D74884
:101BE00008F0EEFAD8B900200121009103460A4618
:101BF000CDE90110084600F059FA022800D1AEE7FD
:101C00007820012100221346CDE9002102900A46E6
:101C1000084600F04BFA02282DD1A0E72CE04FF443
:101C2000FA60002100910B460222CDE9011001204B
:101C300000F03CFA022800D191E764200CF062FE2B
:101C400000200121009103460A46CDE90110084613
:101C500000F02CFA022800D181E77820012100222F
:101C60001346CDE9002102900A46084600F01EFA0C
:101C7000022800D173E79AE00121B04808F0A0FAE9
:101C8000D0B900200121009103460A46CDE9011098
:101C9000022000F00BFA022800D160E77820012131
:101CA00000221346CDE9002102900A46022000F0EE
:101CB000FDF902282CD152E74FF4FA60002100917F
:101CC0000B460222CDE90110104600F0EFF9022880
:101CD00000D144E764200CF015FE002001210091A2
:101CE00003460A46CDE90110022000F0DFF9022880
:101CF00000D134E77820012100221346CDE90021EC
:101D000002900A46022000F0D1F9022800D126E70D
:101D10004DE04FF40061894808F052FAD0B9002034
:101D20000121009103460A46CDE90110032000F08D
:101D3000BDF9022800D112E77820012100221346C4
:101D4000CDE9002102900A46032000F0AFF90228F5
:101D50002CD104E74FF49660002100910B4602223B
:101D6000CDE90110032000F0A1F9022800D1F6E628
:101D700064200CF0C7FD00200121009103460A46B3
:101D8000CDE90110032000F091F9022800D1E6E628
:101D90007820012100221346CDE9002102900A4655
:101DA000032000F083F9022800D1D8E600BF00BF6D
:101DB0000020D4E63EB50446042C06D0052C46D0BF
:101DC000062C7DD0072C41D1CCE04FF480515B48EC
:101DD00008F0F6F9B0B100200121009103460A464F
:101DE000CDE90110042000F061F94FF47A7001216F
:101DF00000221346CDE9002102900A46042000F09B
:101E000055F923E044F62060002100910B460222A0
:101E1000CDE90110042000F049F964200CF072FDB6
:101E200000200121009103460A46CDE9011004205B
:101E300000F03CF94FF47A70012100221346CDE9FD
:101E4000002102900A46042000F030F9CCE04FF463
:101E500000513A4808F0B4F9B0B1002001210091D6
:101E600003460A46CDE90110052000F01FF94FF4A2
:101E70007A70012100221346CDE9002102900A4622
:101E8000052000F013F925E044F6206000210091C0
:101E90000B460222CDE90110052000F007F964206D
:101EA0000CF030FD00200121009103460A46CDE9E7
:101EB0000110052000F0FAF84FF47A70012100E0DB
:101EC00009E000221346CDE9002102900A460520D0
:101ED00000F0ECF888E04FF48041184808F070F901
:101EE000B0B100200121009103460A46CDE901105E
:101EF000062000F0DBF84FF47A700121002213462F
:101F0000CDE9002102900A46062000F0CFF828E033
:101F100044F62060002100910B460222CDE9011019
:101F2000062000F0C3F864200CF0ECFC0020012136
:101F3000009103460A4603E000180140000C0140EE
:101F4000CDE90110062000F0B1F84FF47A700121BC
:101F500000221346CDE9002102900A46062000F037
:101F6000A5F841E04FF40041484808F029F9B0B124
:101F700000200121009103460A46CDE90110072007
:101F800000F094F84FF47A70012100221346CDE955
:101F9000002102900A46072000F088F823E044F66A
:101FA0002060002100910B460222CDE9011007209C
:101FB00000F07CF864200CF0A5FC002001210091C9
:101FC00003460A46CDE90110072000F06FF84FF4F0
:101FD0007A70012100221346CDE9002102900A46C1
:101FE000072000F063F800BF00BF3EBD10B5012020
:101FF0002749087004F013FC002004F021FC0320A2
:10200000FFF792FD0020FFF78FFD042404E0E0B20B
:10201000FFF7D0FE601C04B2082CF8DB00201C493E
:10202000087010BD00201B4908701B490870012072
:102030001A4908700020087348618861C8614870B7
:102040008870C870087148718871C87108724872C8
:10205000002112488172C1720020104908611049A4
:10206000087048708870C87008718860C8600D4931
:10207000087148718871C8710872088048800A49DF
:1020800008704870C87081F82D007047000C01403E
:102090003B000020180000203C0000209427002076
:1020A000B427002008280020C42700202DE9F04F85
:1020B00085B00646884691469A460EACB0CC902034
:1020C00004904FF0000B002F05DBB8F1010F06D094
:1020D000B8F1000F03D0032005B0BDE8F08F002059
:1020E00053464A464146CDE90207CDE90045304610
:1020F000FFF773FAE1E104AA0121F74800680BF049
:1021000091FE9DF810000028F4D1F44800780228D0
:10211000F0D1902004900120F149087002E00120E4
:102120000CF0F0FBC6EB0610EE4901EB80004078A6
:102130000028F4D10220EC4981F830000020E74962
:1021400008700CF0B3FCE849086464200CF0DAFB7A
:102150004E2001F0C7FAE54800680BF020FF64202C
:102160000CF0D0FB00BF04AA0021DB4800680BF094
:1021700059FE9DF810000028F5D1D84800780328B2
:1021800003D0D64800780428EDD1D448007803283D
:102190006FD1902004900120D34981F830000020B5
:1021A000CE490870C6EB0610CE4901EB8000C0781E
:1021B000012818D0CE480078C0EB001001EB800059
:1021C00080690021CDE90045CDE90210C8480078BA
:1021D000C0EB0010C34A12F82010534602223046CA
:1021E000FFF7FBF906E1082E23D2DFE806F004230F
:1021F000436282A2C2E28021BE4807F0E1FFC0B97B
:10220000BB480078C0EB0010B64901EB8000806944
:102210000021CDE90045CDE90210B5480078C0EBBA
:102220000010B04A12F82010534602223046FFF741
:10223000D4F9DEE08021B04807F0C2FFC0B9AC4855
:102240000078C0EB0010A74901EB800080690021F5
:10225000CDE90045CDE90210A5480078C0EB00109B
:10226000A04A12F82010534602223046FFF7B5F973
:10227000BFE0CDE00121A04807F0A2FFC0B99C4813
:102280000078C0EB0010974901EB800080690021C5
:10229000CDE90045CDE9021095480078C0EB00106B
:1022A000904A12F82010534602223046FFF795F963
:1022B0009FE04FF40061904807F082FFC0B98C485E
:1022C0000078C0EB0010874901EB80008069002195
:1022D000CDE90045CDE9021085480078C0EB00103B
:1022E000804A12F82010534602223046FFF775F953
:1022F0007FE04FF48051804807F062FFC0B17C4816
:102300000078C0EB0010774901EB80008069002164
:10231000CDE90045CDE9021075480078C0EB00100A
:10232000704A12F82010534602223046FFF755F942
:102330005FE04FF40051704807F042FFC0B16C48B5
:102340000078C0EB0010674901EB80008069002134
:10235000CDE90045CDE9021065480078C0EB0010DA
:10236000604A12F82010534602223046FFF735F932
:102370003FE04FF48041604807F022FFC0B15C4865
:102380000078C0EB0010574901EB80008069002104
:10239000CDE90045CDE9021055480078C0EB0010AA
:1023A000504A12F82010534602223046FFF715F922
:1023B0001FE04FF40041504807F002FFC0B14C4805
:1023C0000078C0EB0010474901EB800080690021D4
:1023D000CDE90045CDE9021045480078C0EB00107A
:1023E000404A12F82010534602223046FFF7F5F813
:1023F00000BF00BF64200CF085FA4F2001F072F995
:102400003A4800680BF0CBFD64200CF07BFA54E0F6
:1024100032480078042850D13848007801284AD141
:10242000C6EB06102F4901EB8000C07800BB06BB4D
:10243000B8F1000F0ED1314880682D490978C1EB01
:102440000111284A02EB81018969791A401A2B4946
:10245000886030E02948806825490978C1EB01117E
:10246000204A02EB81018969791A0844234988606E
:1024700021E0012E1FD1B8F1010F0ED11F48C06815
:102480001B490978C1EB0111164A02EB81018969E8
:10249000791A401A1949C8600DE01848C0681449F3
:1024A0000978C1EB01110F4A02EB81018969791AA0
:1024B00008441249C86002200EE6C6EB061009491E
:1024C00001EB8000407800287FF415AE0C480078BE
:1024D000012830D12EE00000140000201800002058
:1024E00019000020FC1B0020C42700200800002049
:1024F0001A00002000180140000C0140B427002001
:102500002A00002001201C49087000201B49087087
:102510001B480078303000F0FF0B162007F077FCE6
:10252000584607F074FC0A2007F071FC40F6B830FA
:102530000CF0E8F9E6E713480078022819D117E013
:1025400001200D49087000200C4908700C480078E3
:10255000303000F0FF0B172007F059FC584607F009
:1025600056FC0A2007F053FC40F6B8300CF0CAF9CC
:10257000E6E70020B0E500003A0000203B00002024
:102580002B0000202A00002008B590200090012098
:10259000FE49087000200BF0A8FBFD4908600020F0
:1025A0000BF0A3FBFB4908600120FB4908700020E9
:1025B00048618861C8610873F84981F82E0081F884
:1025C0002F00F749087048700120F649487202F060
:1025D00065FCF5480068F54988420CD001F086FC9E
:1025E00002F0D6FCF249087008460078012802D1B2
:1025F00002F054FC00BF02F045F807F0B9FB0120DF
:1026000002F0ACFDFFF7F2FC04F0FEF807F0CAFBA5
:102610000120E84908700020DC490870682001F0BA
:1026200061F8E54800680BF0BAFC4FF4C8700CF094
:1026300069F965E26A460121D54800680BF0F2FBB2
:102640009DF8000000287DD1DC48007801287AD16F
:102650000220CE4908700120D949087000200CF0F2
:1026600031FA0020CD4981F83000D44908700120AA
:1026700003F086FCCB490880084600884880622029
:1026800001F030F8CC4800680BF089FC4FF4C870BA
:102690000CF038F907F06CFB012002F05FFD03201D
:1026A000FFF742FA0020FFF73FFA4FF4C8700CF032
:1026B00029F9BA4890F82F00012803D0B74880784C
:1026C000012813D1012006F0A1FD4B2001F00AF8EA
:1026D000B94800680BF063FC4FF4C8700CF012F9B5
:1026E0000020AE4981F82F0088700AE04B2000F0EE
:1026F000F9FFB14800680BF052FC4FF4C8700CF0C1
:1027000001F90120A54981F83000002431E0A348F7
:10271000001D005D01282BD10020A249C87108725C
:102720000C7148718871632000F0DCFFA2480068DA
:102730000BF035FC4FF4C8700CF0E4F8E0B205F093
:1027400010FA01E0D9E178E0022800D113E09549C0
:10275000087903F0FEFB93494880622000F0C2FF35
:10276000954800680BF01BFC4FF4C8700CF0CAF8D9
:10277000641C092CCBD300BF90480078042803D1F7
:102780000320864981F8300004F09BFF6A4601214E
:102790007F4800680BF046FB9DF8000008B99020C8
:1027A0000090672000F09EFF834800680BF0F7FB65
:1027B0004FF4C8700CF0A6F880480078042803D0C5
:1027C0000420764981F83000FFF710FC7B48007840
:1027D00004280ED1002079490870502000F082FFB3
:1027E000754800680BF0DBFB4FF4C8700CF08AF8FA
:1027F00013E0002071490870642000F073FF6E48F8
:1028000000680BF0CCFB4FF4C8700CF07BF8002094
:102810006A490870022063494872002068490870BC
:1028200001206449087007F0BDFA03F0EDFFFFF7DF
:10283000F9FB0020634908705DE1604800780528D5
:102840003CD107F095FA01205D49087005204F49F9
:1028500008700020594908704F480078012810D1AD
:102860004D48C2780321012001F0DBFC452000F037
:1028700039FF514800680BF092FB64200CF042F8DD
:1028800018E001F07EFB01F0FCFD012042490870D8
:10289000002008730846C2780321012001F0C1FC22
:1028A000452000F01FFF444800680BF078FB6420CF
:1028B0000CF028F80020424908701CE13F480078DD
:1028C000062818D107F054FA01F0FDFC012807D1C1
:1028D0006C2000F007FF384800680BF060FB06E052
:1028E000462000F0FFFE344800680BF058FB002043
:1028F00032490870FFE03148007807281ED10120D6
:102900002F49087007F034FA00202C49087022483B
:10291000007818B901F035FB01F0B3FD472000F055
:10292000E1FE254800680BF03AFB64200BF0EAFF5B
:1029300000201649087022490870DCE01F48007822
:10294000082813D101201E49087007F011FA002051
:102950001A4908701048C2780321012001F09AFD3D
:1029600000200A49087016490870C4E0134800782E
:1029700009285CD1012012490870692000F0B2FEDC
:102980000D4800680BF00BFB1EE000003C0000202F
:10299000140000203400002094270020C4270020C9
:1029A000B42700200828002020000020297A3F00BA
:1029B0001B00002039000020080000201800002023
:1029C0003B0000200C0000204FF4C8700BF09AFF71
:1029D00001204C49087003204B49087000204B49E6
:1029E000087007F0C5F9012002F0B8FB012006F0DD
:1029F00077FB0120464981F82F00652000F072FE28
:102A0000444800680BF0CBFA64200BF07BFF07F022
:102A1000C9F9FFF707FB00203A49087003F0F4FEFC
:102A200003203D49487200203C49087063E0374864
:102A300000780A283DD1012038490870692000F04B
:102A400051FE344800680BF0AAFA4FF4C8700BF03E
:102A500059FF01202B49087004202B4908700020E1
:102A60002A49087007F084F9012002F077FB03205F
:102A7000FFF75AF80020FFF757F806F082FB6620B0
:102A800000F030FE234800680BF089FA64200BF058
:102A900039FF07F087F9FFF7C5FA002019490870D8
:102AA00003F0B2FE04201C49487200201B49087044
:102AB00021E0164800780B281DD101201749087025
:102AC00007F056F9012002F049FB0320FFF72CF82C
:102AD0000020FFF729F8002010490870432000F07B
:102AE00001FE0C4800680BF05AFA64200BF00AFF54
:102AF0000020064908709020009001200BF002FF92
:102B000098E500000C0000203C0000201800002088
:102B1000C427002008000020082800203B000020D7
:102B200017E00C480078012810D100F04AF801287D
:102B300009D100F0A3F8012805D1074800680BF07F
:102B40002EFA00F0D2FA00200249087001200BF0A2
:102B5000D9FEE6E71D0000200000002030B5C417B4
:102B600000EB14740925B5EB241F07DB0346C417DB
:102B700000EB1474241130340C7006E00346C417C3
:102B800000EB1474241137340C70C41700EB147468
:102B90002411A0EB0414092C09DC0346C41700EB34
:102BA00014742411A0EB04143034147008E00346AC
:102BB000C41700EB14742411A0EB04143734147000
:102BC00030BD7CB500250026002405E0FE48005DF0
:102BD0002844C5B2601CC4B2FC480078801EA042E4
:102BE000F4DC6A4601A92846FFF7B8FFF7480078E9
:102BF000801EF549085C9DF80410884209D1F3480D
:102C00000078401EF049085C9DF80010884200D111
:102C1000012630467CBD30B5C41700EB147409257D
:102C2000B5EB241F07DB0346C41700EB1474241113
:102C300030340C7006E00346C41700EB1474241102
:102C400037340C70C41700EB14742411A0EB041477
:102C5000092C09DC0346C41700EB14742411A0EB03
:102C600004143034147008E00346C41700EB1474E5
:102C70002411A0EB04143734147030BD70B5012654
:102C8000D2480078052870DDCF4840784B286DD0B9
:102C900008DC41280DD0442821D0452847D04628BB
:102CA0001CD164E051287DD055282CD05628F7D16E
:102CB00033E0C648007809280FD1C348807830280F
:102CC0000BD1C148C078332807D1BF4800793028DC
:102CD00003D1BD484079352800D0002602E2BB4828
:102CE00000780C2801D000260CE0022407E0B6484A
:102CF000005D392801DD002603E0601CC4B2082C09
:102D0000F5DB00BFEEE1B0488078302803DBAE4849
:102D10008078342800DD0026E4E1AB488078302854
:102D200003DBA9488078342800DD0026DAE1A748D3
:102D30000078082817D1A4488078302813DBA248EF
:102D4000807831280FDCA048C07830280BDB9E4803
:102D5000C078332807DC9C480079302803DB9A4888
:102D60000079332800DD0026BCE1BCE12FE0974864
:102D700000780A2829D194488078582825DB924881
:102D800080785A2821DC9048C0782B2803D08E48C0
:102D9000C0782D2819D18C480079302815DB8A4855
:102DA000007900E05FE039280FDC8748407930285F
:102DB0000BDB85484079392807DC83488079302847
:102DC00003DB81488079392800DD00268AE105246B
:102DD0000BE07D48005D302805D07B48005D312840
:102DE00001D0002603E0601CC4B20E2CF1DB00BF52
:102DF0000E240BE07448005D302803DB7248005D50
:102E0000392801DD002603E0601CC4B2432CF1DB4D
:102E100000BF01240AE00A2000EB84006A49085C34
:102E2000312801DD002603E0601CC4B20A2CF2DB6D
:102E300000BF65488078312813DB634880786028BC
:102E40000FDC6148C078302803D05F48C078312853
:102E500007D15D480079302804D05B4800793128DB
:102E600000D000263EE10024F6E0022000EBC40082
:102E70005549085C2D2839D1002004EB4401544AFF
:102E800042F82100022518E0284600F01DFC04EB62
:102E900044014F4A52F82120022101EBC401C91C10
:102EA000491B494B595C303901FB002004EB4401BC
:102EB000474A42F82100681E05B2002DE4DA04EB0F
:102EC0004400434951F82000404204EB4401404A89
:102ED00042F8210004EB4400114651F8200000EBB9
:102EE000C00004EB440142F821002EE0002004EB76
:102EF0004401374A42F82100032518E0284600F033
:102F0000E3FB04EB4401324A52F82120022101EB99
:102F1000C401C91C491B2C4B595C303901FB0020F2
:102F200004EB44012A4A42F82100681E05B2002D34
:102F3000E4DA04EB4400264951F8200000EBC0001D
:102F400004EB4401224A42F82100022000EBC400B5
:102F5000001D1D49085C2D2847D1002004EB4401C9
:102F60001B4A02EB8101886002251BE0284600F025
:102F7000ABFB014604EB4400154A02EB800082687B
:102F8000022000EBC400C01D401B0F4B185C303802
:102F900000FB012004EB44010D4A02EB8101886033
:102FA000681E05B2002DE1DA04EB4400084951F82F
:102FB0002000404204EB4401054A02EB8101886095
:102FC00004EB4400114605E0DC1D00201C0000203D
:102FD0002C20002001EB8000806800EBC00004EB97
:102FE000440102EB8101886034E0002004EB4401DD
:102FF000FE4A02EB8101886003251BE0284600F0B1
:1030000063FB014604EB4400F84A02EB800082684F
:10301000022000EBC400C01D401BF54B185C30388B
:1030200000FB012004EB4401F04A02EB81018860BF
:10303000681E05B2002DE1DA04EB4400EB4901EB18
:103040008000806800EBC00004EB4401E74A02EB1B
:1030500081018860601CC4B2022CFFF606AF002418
:103060003DE004EB4400E14951F820004FF62051C7
:10307000884207DC04EB4400DC4951F8200010F5DD
:10308000616F0BDA0020DB490870512000F02AFB49
:10309000D94800680AF083FF002070BD04EB4400AB
:1030A000D24901EB8000806841F6A471884208DCB7
:1030B00004EB4400CD4901EB8000806810F5616F9E
:1030C0000BDA0020CB490870512000F00BFBCA48F6
:1030D00000680AF064FF0020DFE7601CC4B2022C25
:1030E000BFDB00BF00BF3046D7E770B5C0484078AF
:1030F0004538162841D2DFE800F07F8CBAC2FD4087
:10310000FCFBFAF9F8F7F6F540F40B41407740F391
:1031100000240EE0B64880783038A04207D1B74886
:1031200050F82400B64941F82400B6480470601CE9
:10313000C4B2052CEEDBAE488078303800281CD4B1
:10314000AB4880783038052817DA01F021FF0128D4
:1031500009D1AD490870552000F0C4FAA6480068AE
:103160000AF01DFF09E00020A7490870552000F073
:10317000B9FAA14800680AF012FF88E200240EE0C4
:103180009B4880783038A04207D19C4850F82400F2
:103190009E4941F824009B480470601CC4B2052C71
:1031A000EEDB93488078303800281CD49048807833
:1031B0003038052817DA01F0EBFE012809D19449CF
:1031C0000870562000F08EFA8B4800680AF0E7FE7F
:1031D00009E000208E490870562000F083FA8648E6
:1031E00000680AF0DCFE52E20B208A4908708A4827
:1031F00000680AF0D4FE4AE27D48007930388749F9
:10320000C870052083490870834800680AF0C7FE2B
:103210003DE206207F490870754880787F49C87173
:103220007348C078087272480079487270484179D2
:103230007A4881726E4881797848C1726C48007909
:103240003038642148436A494979303901EB8101BA
:1032500000EB4101664880793038084400EBC0003B
:103260006E4908616C4800680AF099FE0FE2072079
:1032700068490870684800680AF091FE07E26748EC
:10328000C07800EB4000664951F820006349496965
:1032900008446249C97801EB4101614A42F82100C2
:1032A0005E48C0695F49096808445C49C97801EB18
:1032B000410102EB8101886001F06AFE01281FD103
:1032C0005949087001F0EAFD01F0DCF9482000F0EE
:1032D00009FA494800680AF062FE00204F490AE0F6
:1032E000D1E1CCE142E10AE101E1F8E0EFE0E6E022
:1032F000DDE018E00FE04861C8610120087309E0D3
:10330000002049490870482000F0ECF93A4800686C
:103310000AF045FEBBE108203E4908703E480068BF
:103320000AF03DFEB3E141480078012807D1592059
:1033300000F0D8F9304800680AF031FEB6E02C48B9
:10334000807830383A4908700978481EC11700EB78
:1033500091718910491C364A51702548C07830381F
:1033600011468870224800793038C87000240EE079
:10337000601D1F49085C3038C1B22D48001D015541
:10338000005D10B12A4880F83140601CC4B2092C9D
:10339000EEDB002450E00E2000EB84001449085CB2
:1033A00030384FF47A7148430F2101EB8401104A01
:1033B000515C303901EBC10202EB011100EB8101DC
:1033C000102000EB84000A4A105C303800EB8000CB
:1033D00001EB4001112000EB8400105C3038084400
:1033E00081B213480E3020F8141023E02C20002066
:1033F000DC1D0020290000200800002014280020E7
:103400002828002054000020520000203C280020E2
:1034100053000020180000201400002094270020F2
:10342000781F00203C040108280000203C000020F8
:10343000C4270020601CC4B2092CACDB00241DE0B2
:1034400004EB440032309349085C3038642148432F
:1034500004EB440133318F4A515C303901EB810177
:1034600000EB410104EB44003430105C3038084478
:1034700081B2894820F81410601CC4B2042CDFDB30
:1034800000240AE0834904F13E00085C3038C1B2F0
:10349000814808300155601CC4B2052CF2DB0120C4
:1034A0007E4908707E4800680AF079FDEFE0092047
:1034B0007A4908707A4800680AF071FDE7E00A204E
:1034C00076490870764800680AF069FDDFE002205E
:1034D00072490870724800680AF061FDD7E0032065
:1034E0006E4908706E4800680AF059FDCFE004206C
:1034F0006A4908706A4800680AF051FDC7E0002474
:1035000015E000250FE004EB4400664901EB800064
:1035100050F8250004EB4401634A02EB810141F8B5
:103520002500681CC5B2032DEDDB601CC4B2022C63
:10353000E7DB01F02DFD01280DD15C49087001F099
:10354000ADFC01F09FF8512000F0CCF8584800681D
:103550000AF025FD09E0002054490870512000F0D0
:10356000C1F8534800680AF01AFD90E00220514962
:1035700008705220487050480078303088704648B3
:10358000203800783030C8704348203890F8300038
:1035900030300871494800793030487147484079E7
:1035A00030308871454880793030C8713A482038C9
:1035B000007830300872012002F0E2FC3F490880B8
:1035C000002002F0DDFC3D494880002413E0C4F1F6
:1035D000040000F079F839490988B1FBF0F00A21BC
:1035E000B0FBF1F201FB12003030324A04F1090164
:1035F0005054601CC4B2052CE9DB002413E0C4F174
:10360000040000F061F82D494988B1FBF0F00A216F
:10361000B0FBF1F201FB12003030264A04F10E013A
:103620005054601CC4B2052CE9DB2448407A303089
:103630002049C874312008753020487588750320EA
:10364000C8750020C876002408E01A48C07E1949D1
:10365000095D08441749C876601CC4B2182CF4DB15
:103660001449C87E01F119021831FFF777FA0420D6
:1036700010498876124800680AF091FC07E00120A2
:103680000E49487203E001200E49087000BF00BFD8
:1036900070BD0000DC1D0020E42700201800002081
:1036A000140000202C200020781F0020290000207A
:1036B00008000020C40900203C0000200828002049
:1036C000040000203900002001460120092908D803
:1036D000012204E000EB80035800531CDAB28A4256
:1036E000F8D970472DE9F04106460220F7490870E5
:1036F00008464670A6F141002C282DD2DFE810F0D4
:103700002C002D00C6008F011C0247024E037A02D6
:103710002C00510350032C002C005203530354037C
:1037200027032C005E032C00680097002C002C005F
:103730005F032C002C002C002C002C002C002C00F3
:103740004F03A102F30255035603570358035903CD
:103750005A035B035C035D0354E3002412E0C4F1ED
:103760000900FFF7B1FFDA490968B1FBF0F00A215F
:10377000B0FBF1F201FB12003030D44AA11C5054CE
:10378000601C84B20A2CEADB0320D04908730020B5
:1037900081F8FF0000240AE0CC4890F8FF00CB49F4
:1037A000095D0844C94981F8FF00601C84B20D2CF2
:1037B000F2DBC64991F8FF0001F10E020D31FFF76F
:1037C000CDF90420C149C8730F20C249087019E31C
:1037D000C148007828B1C14800783030BB498870B2
:1037E00002E03920B94988700320B849C870002028
:1037F00081F8FF0000240AE0B44890F8FF00B349C4
:10380000095D0844B14981F8FF00601C84B2042CB2
:10381000F2DBAE4991F8FF004A1D091DFFF79EF942
:103820000420AA4988710620AA490870EAE2AC4837
:10383000007828B1A94800783030A449887002E0A7
:103840003920A24988700320A049C870002081F85F
:10385000FF0000240AE09D4890F8FF009B49095DA5
:1038600008449A4981F8FF00601C84B2042CF2DB02
:10387000964991F8FF004A1D091DFFF76FF90420D2
:1038800092498871062093490870BBE200249DE0AC
:1038900004EB4400934951F82000002825DA2D203C
:1038A000022101EBC401894A505402251AE004EBBD
:1038B00044008C4951F820004042092190FBF1F767
:1038C0002846FFF701FFB7FBF0F00A21B0FBF1F249
:1038D00001FB12003030052101EBC401491B7B4A7A
:1038E00050546D1E002DE2DA1DE0032519E004EBB3
:1038F00044007C4951F82000092190FBF1F728464B
:10390000FFF7E2FEB7FBF0F00A21B0FBF1F201FB9A
:1039100012003030052101EBC401491B6B4A5054A1
:103920006D1E002DE3DA04EB44006E4901EB8000CC
:103930008068002828DA2D21042000EBC400801CB8
:10394000624A115402251CE004EB4400654901EB76
:10395000800080684042092190FBF1F72846FFF77C
:10396000B3FEB7FBF0F00A21B0FBF1F201FB12004D
:103970003030042101EBC401491D491B534A505406
:103980006D1E002DE0DA1FE003251BE004EB440070
:10399000544901EB80008068092190FBF1F728462B
:1039A000FFF792FEB7FBF0F00A21B0FBF1F201FB4A
:1039B00012003030042101EBC401491D491B434A68
:1039C00050546D1E002DE1DA601C84B2022CFFF60B
:1039D0005FAF03203D498874002081F8FF00002478
:1039E0000AE03A4890F8FF003849095D0844374931
:1039F00081F8FF00601C84B2132CF2DB334991F88C
:103A0000FF0001F114021331FFF7A8F804202F4939
:103A1000487515202F49087006F0AAF9F2E1002038
:103A20002B4908600920FFF74FFE29490968022247
:103A300002FB0010264908600820FFF745FE2449D4
:103A40000968022202FB00102149086000240FE0EF
:103A5000C4F10700FFF738FE234AA11C515C30393E
:103A60001B4A126801FB002019490860601C84B2DF
:103A7000062CEDDB1C48007A392817DD1A48007A3D
:103A800037380A2190FBF1F000EB800010490968FB
:103A900001EB40011448007A37380A2290FBF2F318
:103AA00002FB130008440A49086007E00E48007A48
:103AB00007490968084430380549086001F068FA88
:103AC000012813D131200149887012E0C408002078
:103AD000240000201200002052000020540000208A
:103AE00053000020781F0020DC1D00203020F64904
:103AF00088700320F449C870002081F8FF0000247A
:103B00000AE0F14890F8FF00EF49095D0844EE49EA
:103B100081F8FF00601C84B2042CF2DBEA4991F8C2
:103B2000FF004A1D091DFFF719F80420E6498871B6
:103B30000620E649087065E13120E34988703320AA
:103B4000C870E348C0783030087103204871002005
:103B500081F8FF0000240AE0DB4890F8FF00DA4912
:103B6000095D0844D84981F8FF00601C84B2062C26
:103B7000F2DBD54991F8FF00CA1D891DFEF7EEFF63
:103B80000420D14908720820D04908703AE1D04891
:103B9000C079CD498870CE48007AC870CC48407A48
:103BA0000871CB48807A4871C948C07A887103206F
:103BB000C871002081F8FF0000240AE0C24890F894
:103BC000FF00C149095D0844BF4981F8FF00601C3E
:103BD00084B2082CF2DBBC4991F8FF0001F1090224
:103BE0000831FEF7BBFF0420B74988720A20B749A5
:103BF000087007E1B74800783030B3498870032077
:103C0000C870002081F8FF0000240AE0AE4890F858
:103C1000FF00AD49095D0844AB4981F8FF00601C15
:103C200084B2042CF2DBA84991F8FF004A1D091D5B
:103C3000FEF794FF0420A44988710620A349087068
:103C4000E0E0002412E0C4F10400FFF73DFDA249CA
:103C50000988B1FBF0F00A21B0FBF1F201FB120080
:103C60003030994AA11C5054601C84B2052CEADB08
:103C7000002412E0C4F10400FFF726FD96494988AC
:103C8000B1FBF0F00A21B0FBF1F201FB1200303081
:103C90008D4AE11D5054601C84B2052CEADB0320E0
:103CA00089490873002081F8FF0000240AE0864853
:103CB00090F8FF008449095D0844834981F8FF00BA
:103CC000601C84B20D2CF2DB7F4991F8FF0001F1FA
:103CD0000E020D31FEF742FF04207B49C8730F200E
:103CE0007A4908708EE07C480079303076498870D7
:103CF000794840793030C870774880793030087121
:103D0000764800783030487103208871002081F8AF
:103D1000FF0000240AE06C4890F8FF006A49095D42
:103D20000844694981F8FF00601C84B2072CF2DB6B
:103D3000654991F8FF0001F10802C91DFEF70EFF69
:103D40000420614948720920604908705AE06448BB
:103D5000007830305C4988700320C870002081F8FA
:103D6000FF0000240AE0584890F8FF005649095D1A
:103D70000844554981F8FF00601C84B2042CF2DB32
:103D8000514991F8FF004A1D091DFEF7E7FE042086
:103D90004D49887106204D49087033E000BF00BFCF
:103DA00000BF00BF00BF00BF00BF00BF00BF00BF1B
:103DB00000BF00BF00BF00BF00BF00BF00BF0320A7
:103DC00041498870002081F8FF0000240AE03E4845
:103DD00090F8FF003C49095D08443B4981F8FF0029
:103DE000601C84B2032CF2DB374991F8FF000A1DF6
:103DF000C91CFEF7B3FE042033494871052033493E
:103E0000087000BF00BFBDE8F08110B50220354941
:103E1000087057204870002436E03348005D64285D
:103E200006DD3148005DFF2802D064202E49085588
:103E30002D48005D642190FBF1F03030C1B204EBFD
:103E40004400801C274A11542748005D0A2190FB3A
:103E5000F1F090FBF1F201FB12003030C1B204EB43
:103E60004400C01C1F4A11541F48005D0A2190FBEA
:103E7000F1F201FB12003030C1B204EB4400001D2E
:103E8000184A1154601C84B2052CC6DB0320154966
:103E9000487400200876002408E01248007E11498A
:103EA000095D08440F490876601C84B2122CF4DBCB
:103EB0000C49087E01F113021231FEF7ACFE04201A
:103EC0000849087510BD0000C40800201200002039
:103ED000942700202800002008280020C427002064
:103EE00029000020E00900200D00002030B5FE4B25
:103EF000FE4C2360002023E000211DE0002217E09B
:103F000000EB4003FA4C04EB031301EB410403EB19
:103F1000840353F8223000EB4004F64D05EB041403
:103F200001EB410504EB850444F82230531CDAB25E
:103F3000032AE5DB4B1CD9B20429DFDB431CD8B2D2
:103F40000328D9DB002012E0EB4B53F8303000EBB4
:103F50004004EA4D45F82430E74B03EBC0035B68AF
:103F600000EB400405EB8404A360431CD8B2022894
:103F7000EADBE34B1B68E34C2360E14B5B68636067
:103F800030BD0EB5E048007901287DD1DE4880794A
:103F9000022879DA4FF40061DC4806F011F90028B4
:103FA00073D1D948007B01284AD1D748807900EBEA
:103FB0004000D24901EB80008068B0F5FA6F20DA4A
:103FC0004FF4FA60002100910B460222CDE9011066
:103FD0000320FEF76BF800200121009103460A46FA
:103FE000CDE901100320FEF761F8782001210022BD
:103FF0001346CDE9002102900A460320FEF756F849
:104000008BE0C148807900EB4000BC4901EB8000A7
:104010008068002101220B46CDE900210290022296
:1040200001210320FEF742F87820012100221346E7
:10403000CDE9002102900A460320FEF737F86CE034
:10404000B3480068B049C9690844B0F5FA6F23DA8B
:104050004FF4FA60002100910B460222CDE90110D5
:104060000320FEF723F800200121009103460A46B1
:10407000CDE901100320FEF719F878200121002274
:104080001346CDE9002101E0C5E023E002900A4695
:104090000320FEF70BF840E09D4800689A49C96983
:1040A0000844A0F59670002101220B46CDE90021BD
:1040B0000290022201210320FDF7F8FF7820012160
:1040C00000221346CDE9002102900A460320FDF7A5
:1040D000EDFF22E04FF4FA60002100910B4602222E
:1040E000CDE901100320FDF7E1FF64200AF00AFC8E
:1040F00000200121009103460A46CDE9011003206A
:10410000FDF7D4FF7820012100221346CDE90021DC
:1041100002900A460320FDF7C9FF80217D4806F082
:104120004FF8002852D17848807900EB400073495D
:1041300051F82000744949690844B0F5FA6F22DA51
:104140004FF4FA60002100910B460222CDE90110E4
:1041500001210020FDF7AAFF002001210091034664
:104160000A46CDE901100146FDF7A0FF78200121A4
:1041700000221346CDE9002102900A46002108469C
:10418000FDF794FF47E06048807900EB40005B4911
:1041900051F820005C4949690844A0F59670002157
:1041A00001220B46CDE90021029002220846FDF7CC
:1041B0007DFF7820012100221346CDE900210290E5
:1041C0000A4600210846FDF771FF24E04FF4FA602B
:1041D000002100910B460222CDE9011001210020AF
:1041E000FDF764FF64200AF08DFB0020012100919F
:1041F00003460A46CDE901100146FDF757FF782036
:10420000012100221346CDE9002102900A46002137
:104210000846FDF74BFF00203B4948618861C861B3
:104220000EBDFEB505460E461446012D46D1022CA4
:1042300044DA04EB4400314951F8200000280EDA3A
:1042400004EB440051F820004042002100910B464D
:104250000222CDE901100846FDF728FF0EE004EB2D
:104260004400264951F82000002100910B4602220B
:10427000CDE9011001210020FDF718FF2448006856
:1042800000280DDA224800684042002100910B46C8
:104290000222CDE9011001210320FDF707FF0AE00A
:1042A0001B480068002100910B460222CDE9011055
:1042B0000320FDF7FBFE002013490870124805712A
:1042C00046718471FEBD0EB50F48C07958287AD169
:1042D0000D48007A2B2845D10B48C07800EB4000F0
:1042E000064951F8200017E0297A3F0020000020FD
:1042F00040040108E81E0020D0040108781F0020B7
:10430000E0040108DC1E002094270020000C01407E
:10431000F404010800180140FD4949690844FC49BA
:1043200009690844FA49C978FA4A52F8311041F249
:1043300094121144884201DD01200EBDF448006949
:10434000002100910B460222CDE90110012100203D
:10435000FDF7ACFEEE484069ED4909690844EC49B7
:1043600048618CE0EA48007A2D28FAD1E848C07804
:1043700000EB4000E84951F82000E549496908444C
:10438000E3490969411AE248C078E24A52F830002C
:10439000A0F588509438814201DA0120CDE7DC484D
:1043A0000069002100910B460222CDE90110084668
:1043B000FDF77CFED6484069D5490969401AD449C1
:1043C00048615CE0FFE7D248C0795A2857D1D0480D
:1043D000007A2B2827D1D1480068CD49C969084403
:1043E000CB4909690844CA49C978CA4A02EBC101E4
:1043F000496841F294121144884201DD01209CE792
:10440000C3480069002100910B460222CDE901104A
:104410000320FDF74BFEBE48C069BD490969084449
:10442000BB49C8612BE0BA48007A2D2827D1BB4888
:104430000068B749C9690844B5490969411AB448CF
:10444000C078B44A02EBC0004068A0F588509438A8
:10445000814201DA012070E7AD4800690021009136
:104460000B460222CDE9011001210320FDF71EFEBB
:10447000A748C069A6490969401AA549C861002032
:104480005BE70120A2490870002048618861C8618B
:1044900008737047FEB505460E461446FFF771FDDA
:1044A000FFF7EFFF012D7BD1022C79DA04EB4400FA
:1044B000994951F8200000280EDA04EB440051F825
:1044C00020004042002100910B460222CDE901105C
:1044D0000846FDF7EBFD0EE004EB44008E4951F871
:1044E0002000002100910B460222CDE9011001219C
:1044F0000020FDF7DBFD04EB4400874901EB800061
:104500008068002810DA04EB440001EB800080682A
:104510004042002100910B460222CDE90110012109
:104520000320FDF7C3FD0EE004EB44007A4901EBE4
:1045300080008068002100910B460222CDE9011025
:104540000320FDF7B3FD022000F008FE04EB440059
:10455000714901EB80008068B0F5FA6F21DA4FF401
:10456000FA60002100910B460222CDE901100320E0
:10457000FDF79CFD00200121009103460A46CDE98C
:1045800001100320FDF792FD78200121002213463F
:10459000CDE9002102900A460320FDF787FD1EE0C9
:1045A00065E004EB44005C4901EB80008068A0F505
:1045B0009670002101220B46CDE9002102900222D3
:1045C00001210320FDF772FD78200121002213460E
:1045D000CDE9002102900A460320FDF767FD04EBB8
:1045E00044004D4951F82000B0F5FA6F22DA4FF43B
:1045F000FA60002100910B460222CDE90110012151
:104600000020FDF753FD00200121009103460A46DA
:10461000CDE901100146FDF749FD78200121002276
:104620001346CDE9002102900A4600210846FDF715
:104630003DFD1CE004EB4400374951F82000A0F593
:104640009670002101220B46CDE900210290022242
:104650000846FDF72BFD7820012100221346CDE905
:10466000002102900A4600210846FDF71FFD472061
:10467000FFF738F82A48006809F091FC64200AF036
:1046800041F9FEBDF0B50021B0E0002019E0254A57
:1046900052F82120234B0C3B53F82130D21A4243CD
:1046A0000B2392FBF3F21F4B0C3B53F821301A44BF
:1046B00000EB40031C4C04EB830343F82120421C15
:1046C000D0B20C28E3DB24201EE00C2290FBF2F396
:1046D00002FB1302134B0C3353F821400C3353F8F5
:1046E0002130E31A5A430B2392FBF3F30D4A18329D
:1046F00052F821201A4400EB40030B4C04EB8303D7
:1047000043F82120421CD0B23028DEDB0C2039E0F7
:1047100094270020D0040108781F0020F404010829
:1047200008000020F41E0020442000200C2290FBF2
:10473000F2F200F1180303EB4303FE4C04EB830396
:1047400053F82140A0F10C0303EB4303F94D05EBB3
:10475000830353F82130E31A5A43032392FBF3F304
:10476000A0F10C0202EB42022C4604EB820252F84A
:1047700021201A4400EB400304EB830343F821207B
:10478000421CD0B21828D1DB18202BE00C2290FB61
:10479000F2F200F10C0303EB4303E64C04EB83035A
:1047A00053F82140A0F1180303EB4303E14D05EB5F
:1047B000830353F82130E31A5A43032392FBF3F3A4
:1047C000A0F1180202EB42022C4604EB820252F8DE
:1047D00021201A4400EB400304EB830343F821201B
:1047E000421CD0B22428D1DB4A1CD1B20329FFF6E7
:1047F0004CAF0021FDE00020A7E0062290FBF2F381
:1048000002FB130242BB062390FBF3F202EBD273CE
:104810005B10A2EB430303BB062390FBF3F202EB16
:10482000D2735C10C44B53F82150243B53F8213011
:10483000EB1A5C4304EB8403DB008B2493FBF4F45E
:10484000BD4B243B53F821301C4400EB4005BB4BCF
:1048500003EB850343F8214020E0062390FBF3F3AC
:10486000C3F1080202EBD2735C10B34B53F8215032
:10487000243B53F82130EB1A5C4304EB8403DB0048
:104880008B2493FBF4F4AC4B53F821301C1B00EB4E
:104890004005AA4B03EB850343F82140062290FB19
:1048A000F2F302FB1302052A4DD1062390FBF3F22B
:1048B00002EBD2735B10A2EB43030BBB062390FB0E
:1048C000F3F202EBD2735C109B4B0C3B53F821507C
:1048D0000C3B53F82130EB1A5C4304EB8403DB0000
:1048E0008B2493FBF4F4944B183B53F821301C4475
:1048F00000EB4005914B03EB850343F8214022E098
:10490000062390FBF3F3C3F1080202EBD2735C10B1
:10491000894B0C3B53F821500C3B53F82130EB1AD8
:104920005C4304EB8403DB008B2493FBF4F4824BA5
:104930000C3B53F821301C1B00EB40057F4B03EB75
:10494000850343F82140421CD0B23028FFF655AF12
:1049500000204AE0062290FBF2F302FB1302EAB3C6
:10496000062290FBF2F302FB1302052A3BD006223B
:1049700090FBF2F302FB1302821A02EB42036F4A2E
:1049800002EB830252F82130062290FBF2F402FB84
:104990001404421D121B02EB4204684A02EB84021B
:1049A00052F82140062290FBF2F502FB1502821A12
:1049B00002EB4205614A02EB850252F82120A21A5D
:1049C000062490FBF4F504FB15046243052492FBD6
:1049D000F4F2134400EB4004584A00E003E002EB19
:1049E000840242F82130421CD0B23028B2DB4A1C8B
:1049F000D1B20329FFF6FFAE0021A8E1002047E174
:104A0000C31700EB93739B10A0EB8303002B27D1FC
:104A1000C31700EB93739B10032493FBF4F504FB83
:104A20001533F3B90C2290FBF2F3434A183252F8D3
:104A300021400C3A52F82120A21A5A438B235A43A0
:104A400040F2ED1392FBF3F33B4A0C3252F8212073
:104A5000134400EB40043A4A02EB840242F821304E
:104A600078E0C31700EB93739B10032493FBF4F5DA
:104A700004FB1533012B31D1C31700EB93739B104B
:104A80005B1E93FBF4F42C4B183353F821500C3B72
:104A900053F82130EB1A63438B24634340F2ED1447
:104AA00093FBF4F4244B0C3353F821301C44224B79
:104AB000183353F821500C3B53F82130EB1A2625BC
:104AC0006B4340F2ED1593FBF5F31C4400EB4005FE
:104AD0001B4B03EB850343F821403BE0C31700EB7E
:104AE00093739B109B1E032493FBF4F4124B183317
:104AF00053F821500C3B53F82130EB1A63438B24BD
:104B0000634340F2ED1493FBF4F40B4B0C3353F876
:104B100021301C44084B183353F821500C3B53F8F8
:104B20002130EB1A26256B435B0040F2ED1593FB19
:104B3000F5F307E0442000203C1F002084220020E1
:104B4000C42400201C4400EB4005D04B03EB85033C
:104B500043F82140C31700EB93739B10A0EB830332
:104B6000032B26D1C31700EB93739B10032493FBF5
:104B7000F4F504FB1533EBB90C2290FBF2F3C44AB5
:104B800052F821400C3252F82120A21A5A438B23AA
:104B90005A4340F2ED1392FBF3F3BD4A0C3252F844
:104BA0002120134400EB4004B84A02EB840242F88F
:104BB00021306BE0C31700EB93739B10032493FB2E
:104BC000F4F504FB1533012B2FD1C31700EB9373BE
:104BD0009B105B1E93FBF4F4AD4B53F821500C3348
:104BE00053F82130EB1A63438B24634340F2ED14F6
:104BF00093FBF4F4A64B0C3353F821301C44A44B24
:104C000053F821500C3353F82130EB1A26256B430F
:104C100040F2ED1593FBF5F31C4400EB40059B4B74
:104C200003EB850343F8214030E0C31700EB937397
:104C30009B109B1E032493FBF4F4954B53F82150D7
:104C40000C3353F82130EB1A63438B24634340F257
:104C5000ED1493FBF4F48E4B0C3353F821301C44C9
:104C60008B4B53F821500C3353F82130EB1A262587
:104C70006B435B0040F2ED1593FBF5F31C4400EB36
:104C80004005824B03EB850343F82140421CD0B220
:104C90003028FFF6B5AE002055E0C41700EB947441
:104CA000A410A0EB8404E4B3C41700EB9474A41024
:104CB000A0EB8404032C44D00246C61700EB967682
:104CC000B610A0EB8606C6F10306064406EB4607BF
:104CD0006E4E06EB870656F821700346C61700EBAA
:104CE0009676B610A0EB8606861B06EB460C674E42
:104CF00006EB8C0656F82160BE1B0446C71700EB76
:104D00009777BF10A0EB87077E43032796FBF7F743
:104D10000546C61700EB9676B610A0EB8606861BF6
:104D200000E00EE006EB460C584E06EB8C0656F8FB
:104D30002160374400EB400C544E06EB8C0646F8DD
:104D40002170421CD0B23028A7DB4A1CD1B2032903
:104D5000FFF654AE002194E000208DE0032290FB8A
:104D6000F2F302FB1302F2B9032290FBF2F2494B79
:104D700053F82130474C0C3C54F821401B1B5A433C
:104D80008B235A434FF4FE7392FBF3F2414B0C3BDF
:104D900053F821301A4400EB40033F4C04EB8303EB
:104DA00043F8212066E0032290FBF2F302FB13029A
:104DB000012A2FD1032290FBF2F2364B53F8213017
:104DC000344C0C3C54F821401B1B5A438B235A4350
:104DD0004FF4FE7392FBF3F22E4B0C3B53F8213051
:104DE00013442C4A52F821202A4C0C3C54F8214000
:104DF000121BC2EB021202EB42024FF4FE7492FB52
:104E0000F4F21A4400EB4003234C04EB830343F811
:104E100021202FE0032290FBF2F21E4B53F82130A9
:104E20001C4C0C3C54F821401B1B5A438B235A4307
:104E30004FF4FE7392FBF3F2164B0C3B53F8213008
:104E40001344144A52F82120124C0C3C54F82140CF
:104E5000121B5200C2EB021202EB42024FF4FE742C
:104E600092FBF4F21A4400EB40030B4C04EB830377
:104E700043F82120421CD0B20C28FFF66FAF4A1C29
:104E8000D1B20329FFF668AFF0BD0000C4240020B2
:104E9000601F0020841F00200427002070B506F04A
:104EA00036FC352006F09FFEA2480068A249086043
:104EB000A048001D0068A1490860002424E00025E6
:104EC0001EE0002618E005EB450004EB440100EB72
:104ED000810030449A4901EB8000D0F8080C04EBC3
:104EE0004401984A02EB011105EB450201EB8201F6
:104EF00041F82600701CC6B2032EE4DB681CC5B264
:104F0000042DDEDB601CC4B2032CD8DB002415E0CA
:104F10008B4901EBC400D0F8980C04EB44018A4A99
:104F200042F821008349983101EBC400406804EB4A
:104F3000440102EB81018860601CC4B2022CE7DBF3
:104F40007C48A8300068814908607A48AC30006825
:104F50004860002409E07A4901EB8400D0F8B00CE5
:104F60007B4941F82400601CC4B2052CF3DB00240B
:104F700009E0734901EB8400D0F8C40C754941F88D
:104F80002400601CC4B2052CF3DB06F0C6FB70BD28
:104F900070B506F0BCFB352006F025FE654806F02E
:104FA000FDFB65480168634806F089FC6A490870A2
:104FB00008460078042801D0002070BD5F480168D1
:104FC0005C48001D06F07BFC6349087008460078C9
:104FD000042801D00020F0E700242DE0002527E080
:104FE000002621E004EB4402564B03EB021205EBD2
:104FF000450302EB830252F8261005EB450204EB51
:10500000440302EB830232444A4B083303EB820031
:1050100006F055FC5049087008460078042801D075
:105020000020CAE7701CC6B2032EDBDB681CC5B2C9
:10503000042DD5DB601CC4B2032CCFDB002429E097
:1050400004EB4402404B53F822103A4B983303EBE5
:10505000C40006F034FC4049087008460078042873
:1050600001D00020A9E704EB4402374B03EB820296
:10507000304B9833916803EBC402101D06F01FFCFF
:105080003549087008460078042801D0002094E7CC
:10509000601CC4B2022CD3DB2C4801682548A83020
:1050A00006F00DFC2C49087008460078042801D051
:1050B000002082E7254841681E48AC3006F0FFFB1F
:1050C0002549087008460078042801D0002074E7BC
:1050D000002412E01E4A52F82410164AB03202EBA5
:1050E000840006F0ECFB1C49087008460078042890
:1050F00001D0002061E7601CC4B2052CEADB00246B
:1051000012E0144A52F824100A4AC43202EB840016
:1051100006F0D5FB1049087008460078042801D035
:1051200000204AE7601CC4B2052CEADB06F0F5FA61
:10513000012042E700FC010820000020240000209C
:1051400000F00108E81E0020781F0020DC1E00206F
:10515000282800203C2800202C00002038B50446D8
:1051600004EB8400440025465CE06A466421FE4866
:10517000006808F057FE9DF80000002851D1FB4858
:10518000007802284DD1902000900220F84981F843
:1051900030000020F549087009F088FCF4490864E3
:1051A000642009F0AFFB4E20FEF79CFAF14800683E
:1051B00008F0F5FE642009F0A5FB00BF6A46002157
:1051C000E948006808F02EFE9DF800000028F5D19F
:1051D000E6480078032803D0E44800780428EDD19D
:1051E000E2480078032816D1902000900120E04981
:1051F00081F830000020DD490870642009F082FB4E
:105200004F20FEF76FFADB48006808F0C8FE642004
:1052100009F078FB05E0D5480078042801D1022088
:1052200038BD6D1E002DA0D10020F9E703B5A3B055
:105230000020219020901F901E90CD48001D2399A2
:10524000405C01287DD1249801287BD1C848007892
:10525000C9498979884207DDC5480078C6498979F6
:10526000401AC0B2209001E000202090C048407851
:10527000C1498979884207DDBD484078BE498979AE
:10528000401AC0B21F9001E000201F90239804280C
:105290003DD1B748C08A09900AF006FBB74AB84B1F
:1052A000CDE90A010AF050FB0022B64BCDE90C0112
:1052B0000AF0AAF8CDE91001AD48808C0D900AF0F3
:1052C000F3FACDE90E01DDE910230AF051F90022CD
:1052D000AD4BCDE912010AF097F8CDE914010AF0BF
:1052E00061F818901F980AF05FFE179018990AF05D
:1052F00081FD19900AF052FDCDE91A0109F0E4FF91
:10530000CDE91C010AF08CFAC0B21E9042E023984D
:1053100007283FD19648808B09900AF0C5FA974A32
:10532000974BCDE90A010AF00FFB0022974BCDE91C
:105330000C010AF069F8CDE910018D48C08C0D9080
:1053400001E0FCE335E00AF0AFFACDE90E01DDE95A
:1053500010230AF00DF900228B4BCDE912010AF05F
:1053600053F8CDE914010AF01DF818901F980AF0BF
:105370001BFE179018990AF03DFD19900AF00EFDDA
:10538000CDE91A0109F0A0FFCDE91C010AF048FAA5
:10539000C0B21E907848017A1E98814206DA76489B
:1053A000017A1E98401AC0B21E908CE000201E9018
:1053B00089E024980028F8D16D48007820906C4846
:1053C00040781F90239804283DD16948C08A0990ED
:1053D0000AF06AFA694A6A4BCDE90A010AF0B4FA9E
:1053E0000022684BCDE90C010AF00EF8CDE910015E
:1053F0005F48808C0D900AF057FACDE90E01DDE987
:1054000010230AF0B5F800225F4BCDE9120109F034
:10541000FBFFCDE9140109F0C5FF18901F980AF0B1
:10542000C3FD179018990AF0E5FC19900AF0B6FC34
:10543000CDE91A0109F048FFCDE91C010AF0F0F9A5
:10544000C0B21E903FE0239807283CD14848808B8B
:1054500009900AF029FA494A494BCDE90A010AF0B4
:1054600073FA0022494BCDE90C0109F0CDFFCDE9DB
:1054700010013F48C08C0D900AF016FACDE90E01DC
:10548000DDE910230AF074F800223F4BCDE9120148
:1054900009F0BAFFCDE9140109F084FF18901F98B4
:1054A0000AF082FD179018990AF0A4FC19900AF0EE
:1054B00075FCCDE91A0109F007FFCDE91C010AF0DE
:1054C000AFF9C0B21E902398092828D2DFE800F077
:1054D0000528F3F1F0EFEEEDEC002548C0891390BC
:1054E0000AF0E2F92A4A2B4BCDE914010AF02CFA12
:1054F000294A2A4BCDE9160109F086FFCDE91A01A8
:1055000020980AF0D1F9CDE91801DDE91A230AF053
:105510001BFACDE91C010AF083F980B221909BE2CD
:105520001348008A0F900AF0BFF9144A1C4BCDE9CA
:1055300010010AF009FACDE914010D4890F828008D
:105540000F900AF0B1F90022164BCDE910010AF0D4
:10555000FBF9CDE91201DDE9142309F055FF124AE8
:10556000124BCDE9160123E01400002018000020A2
:10557000C427002008000020082800207B14AE4724
:10558000E17A743F000041400000F03F00003140EC
:1055900068DB94A2814E4B3F23716626DE02ED3F0D
:1055A000E17A443F0000D83F8E588B4F0150334082
:1055B00009F02AFFCDE91A0120980AF075F9CDE922
:1055C0001801DDE91A230AF0BFF9CDE91C010AF040
:1055D00027F980B221902198401C80B22190219817
:1055E000401C80B221902198113080B22190FE4859
:1055F000408A11900AF058F9FC4AFD4BCDE912019E
:105600000AF0A2F9FB4AFC4BCDE9140109F0FCFEBB
:10561000CDE91801F448407815900AF045F9CDE934
:105620001601DDE918230AF08FF90022F34BCDE9CA
:105630001A0109F0E9FECDE91C010AF0F1F880B287
:10564000E949098C88422EDAE748408A11900AF02D
:105650002BF9E64AE64BCDE912010AF075F9E54A65
:10566000E54BCDE9140109F0CFFECDE91801DE4884
:10567000407815900AF018F9CDE91601DDE91823F4
:105680000AF062F90022DD4BCDE91A0109F0BCFEF7
:10569000CDE91C010AF0C4F8D349098C091A2198F4
:1056A000084480B221903AE7F4E301E3A6E2D4E1B2
:1056B000D4E079E0FFE7CC48408A13900AF0F4F890
:1056C000CA4ACB4BCDE914010AF03EF9C94ACA4B8C
:1056D000CDE9160109F098FECDE91A011F980AF0EC
:1056E000E3F8CDE91801DDE91A230AF02DF9CDE937
:1056F0001C010AF095F880B221902198401C80B2DC
:105700002190B948408A13900AF0CEF8B74AB84BB6
:10571000CDE914010AF018F9B64AB74BCDE91601E4
:1057200009F072FECDE91A01AF484078401E17908B
:105730000AF0A3F8CDE91801DDE91A230AF004F90B
:10574000CDE91C010AF06CF881B2A748408C814277
:1057500029DAA548408A13900AF0A6F8A34AA44B78
:10576000CDE914010AF0F0F8A24AA34BCDE91601E5
:1057700009F04AFECDE91A019B484078401E179077
:105780000AF07BF8CDE91801DDE91A230AF0DCF80C
:10579000CDE91C010AF044F89349498C091A219873
:1057A000084480B22190D0E31F980AF07DF84FF0B2
:1057B0003332934BCDE916010AF0C6F8CDE91A0150
:1057C0008948808A05900AF06FF88E4A8E4BCDE9A1
:1057D00006010AF0B9F800228C4BCDE9080109F066
:1057E00013FE8B4A8B4BCDE90A0109F00DFE8A4A64
:1057F0008A4BCDE90C0109F007FECDE910017A488A
:1058000090F82900401C0D900AF037F8CDE90E0100
:10581000DDE910230AF098F87D4A814BCDE91201A9
:1058200009F0F2FDCDE916011F980AF03DF8CDE927
:105830001401DDE916230AF087F8CDE91801DDE946
:105840001A2309F0E1FDCDE91C0109F0E9FF80B25E
:1058500021902198401C80B2219076E36248C08A52
:1058600019900AF021F86F4A6F4BCDE91A010AF03E
:105870006BF8CDE91C0109F0D3FF80B222305A4900
:10588000898C91FBF0F0002860D11F980AF00CF889
:105890004FF033325A4BCDE916010AF055F8CDE9F5
:1058A0001A015148C08A019009F0FEFF554A564B33
:1058B000CDE902010AF048F8554A564BCDE90401FA
:1058C00009F0A2FD544A554BCDE9060109F09CFDB3
:1058D00000224FF08043CDE908010AF035F8CDE908
:1058E0000C014148808C099009F0DEFFCDE90A01E6
:1058F000DDE90C2309F088FD454A494BCDE90E014D
:1059000009F082FD00223D4BCDE9100109F07CFD3C
:1059100000223A4BCDE9120109F076FDCDE91601DE
:105920001F9809F0C1FFCDE91401DDE916230AF043
:105930000BF8CDE91801DDE91A2309F065FDCDE981
:105940001C0109F06DFF80B2219081E01F9809F0E1
:10595000ABFF4FF033322A4BCDE9160109F0F4FFCB
:10596000CDE91A012048407800EB00104000139068
:1059700009F083FFCDE916011B48C08A039009F0A6
:1059800093FF204A204BCDE9040109F0DDFF204AB6
:10599000204BCDE9060109F037FD1F4A1F4BCDE929
:1059A000080109F031FD00224FF08043CDE90A01E2
:1059B00009F0CAFFCDE90E010B48808C0B9009F06D
:1059C00073FFCDE90C01DDE90E2309F01DFDCDE9E2
:1059D00012011E9809F068FFCDE91001DDE91223DC
:1059E00009F0B2FF22E00000C4270020589B73AEEC
:1059F00030967C3FA2DB018D8808084000003140D2
:105A00003333D33F2174F133059D663F00000840D6
:105A10005B2238AAAA2A12405F196547F47CA73E88
:105A2000AA2A01407B14AE47E17A743FCDE9140104
:105A3000DDE9162309F0E8FCCDE91801DDE91A23B8
:105A400009F0E2FCCDE91C0109F0EAFE80B22190E8
:105A50002198401C80B2219077E21F9809F024FF22
:105A60004FF03332FC4BCDE9160109F06DFFCDE963
:105A70001A01FA48008B059009F016FFF84AF94B15
:105A8000CDE9060109F060FF0022F74BCDE90801DE
:105A900009F0BAFCF54AF64BCDE90A0109F0B4FC6D
:105AA000F44AF54BCDE90C0109F0AEFCCDE910014B
:105AB000EA4890F82A00401C0D9009F0DEFECDE97E
:105AC0000E01DDE9102309F03FFFE84AEB4BCDE979
:105AD000120109F099FCCDE916011F9809F0E4FEC6
